{
  "contractName": "AlarmUpload",
  "abi": [
    {
      "constant": false,
      "inputs": [
        {
          "name": "_name",
          "type": "string"
        },
        {
          "name": "_IDCard",
          "type": "string"
        },
        {
          "name": "_score",
          "type": "string"
        },
        {
          "name": "_desc",
          "type": "string"
        }
      ],
      "name": "upload",
      "outputs": [],
      "payable": false,
      "stateMutability": "nonpayable",
      "type": "function"
    },
    {
      "constant": true,
      "inputs": [],
      "name": "getTotal",
      "outputs": [
        {
          "name": "",
          "type": "uint256"
        }
      ],
      "payable": false,
      "stateMutability": "view",
      "type": "function"
    },
    {
      "constant": true,
      "inputs": [
        {
          "name": "_index",
          "type": "uint256"
        }
      ],
      "name": "getDetailByIndex",
      "outputs": [
        {
          "name": "name",
          "type": "string"
        },
        {
          "name": "IDCard",
          "type": "string"
        },
        {
          "name": "handleScore",
          "type": "string"
        },
        {
          "name": "handleDesc",
          "type": "string"
        }
      ],
      "payable": false,
      "stateMutability": "view",
      "type": "function"
    },
    {
      "constant": true,
      "inputs": [
        {
          "name": "_IDCard",
          "type": "string"
        }
      ],
      "name": "getDetailByIDCard",
      "outputs": [
        {
          "name": "name",
          "type": "string"
        },
        {
          "name": "IDCard",
          "type": "string"
        },
        {
          "name": "handleScore",
          "type": "string"
        },
        {
          "name": "handleDesc",
          "type": "string"
        }
      ],
      "payable": false,
      "stateMutability": "view",
      "type": "function"
    }
  ],
  "bytecode": "0x608060405234801561001057600080fd5b5061112d806100206000396000f3fe608060405234801561001057600080fd5b506004361061004c5760003560e01c806303f800fe14610051578063518cd7ca146102c9578063775a25e314610549578063b1a5fc1114610567575b600080fd5b61010a6004803603602081101561006757600080fd5b810190808035906020019064010000000081111561008457600080fd5b82018360208201111561009657600080fd5b803590602001918460018302840111640100000000831117156100b857600080fd5b91908080601f016020809104026020016040519081016040528093929190818152602001838380828437600081840152601f19601f820116905080830192505050505050509192919290505050610752565b6040518080602001806020018060200180602001858103855289818151815260200191508051906020019080838360005b8381101561015657808201518184015260208101905061013b565b50505050905090810190601f1680156101835780820380516001836020036101000a031916815260200191505b50858103845288818151815260200191508051906020019080838360005b838110156101bc5780820151818401526020810190506101a1565b50505050905090810190601f1680156101e95780820380516001836020036101000a031916815260200191505b50858103835287818151815260200191508051906020019080838360005b83811015610222578082015181840152602081019050610207565b50505050905090810190601f16801561024f5780820380516001836020036101000a031916815260200191505b50858103825286818151815260200191508051906020019080838360005b8381101561028857808201518184015260208101905061026d565b50505050905090810190601f1680156102b55780820380516001836020036101000a031916815260200191505b509850505050505050505060405180910390f35b610547600480360360808110156102df57600080fd5b81019080803590602001906401000000008111156102fc57600080fd5b82018360208201111561030e57600080fd5b8035906020019184600183028401116401000000008311171561033057600080fd5b91908080601f016020809104026020016040519081016040528093929190818152602001838380828437600081840152601f19601f8201169050808301925050505050505091929192908035906020019064010000000081111561039357600080fd5b8201836020820111156103a557600080fd5b803590602001918460018302840111640100000000831117156103c757600080fd5b91908080601f016020809104026020016040519081016040528093929190818152602001838380828437600081840152601f19601f8201169050808301925050505050505091929192908035906020019064010000000081111561042a57600080fd5b82018360208201111561043c57600080fd5b8035906020019184600183028401116401000000008311171561045e57600080fd5b91908080601f016020809104026020016040519081016040528093929190818152602001838380828437600081840152601f19601f820116905080830192505050505050509192919290803590602001906401000000008111156104c157600080fd5b8201836020820111156104d357600080fd5b803590602001918460018302840111640100000000831117156104f557600080fd5b91908080601f016020809104026020016040519081016040528093929190818152602001838380828437600081840152601f19601f820116905080830192505050505050509192919290505050610b87565b005b610551610d53565b6040518082815260200191505060405180910390f35b6105936004803603602081101561057d57600080fd5b8101908080359060200190929190505050610d5f565b6040518080602001806020018060200180602001858103855289818151815260200191508051906020019080838360005b838110156105df5780820151818401526020810190506105c4565b50505050905090810190601f16801561060c5780820380516001836020036101000a031916815260200191505b50858103845288818151815260200191508051906020019080838360005b8381101561064557808201518184015260208101905061062a565b50505050905090810190601f1680156106725780820380516001836020036101000a031916815260200191505b50858103835287818151815260200191508051906020019080838360005b838110156106ab578082015181840152602081019050610690565b50505050905090810190601f1680156106d85780820380516001836020036101000a031916815260200191505b50858103825286818151815260200191508051906020019080838360005b838110156107115780820151818401526020810190506106f6565b50505050905090810190601f16801561073e5780820380516001836020036101000a031916815260200191505b509850505050505050505060405180910390f35b6060806060806001856040518082805190602001908083835b6020831061078e578051825260208201915060208101905060208303925061076b565b6001836020036101000a03801982511681845116808217855250505050505090500191505090815260200160405180910390206000016001866040518082805190602001908083835b602083106107fa57805182526020820191506020810190506020830392506107d7565b6001836020036101000a03801982511681845116808217855250505050505090500191505090815260200160405180910390206001016001876040518082805190602001908083835b602083106108665780518252602082019150602081019050602083039250610843565b6001836020036101000a03801982511681845116808217855250505050505090500191505090815260200160405180910390206002016001886040518082805190602001908083835b602083106108d257805182526020820191506020810190506020830392506108af565b6001836020036101000a0380198251168184511680821785525050505050509050019150509081526020016040518091039020600301838054600181600116156101000203166002900480601f01602080910402602001604051908101604052809291908181526020018280546001816001161561010002031660029004801561099d5780601f106109725761010080835404028352916020019161099d565b820191906000526020600020905b81548152906001019060200180831161098057829003601f168201915b50505050509350828054600181600116156101000203166002900480601f016020809104026020016040519081016040528092919081815260200182805460018160011615610100020316600290048015610a395780601f10610a0e57610100808354040283529160200191610a39565b820191906000526020600020905b815481529060010190602001808311610a1c57829003601f168201915b50505050509250818054600181600116156101000203166002900480601f016020809104026020016040519081016040528092919081815260200182805460018160011615610100020316600290048015610ad55780601f10610aaa57610100808354040283529160200191610ad5565b820191906000526020600020905b815481529060010190602001808311610ab857829003601f168201915b50505050509150808054600181600116156101000203166002900480601f016020809104026020016040519081016040528092919081815260200182805460018160011615610100020316600290048015610b715780601f10610b4657610100808354040283529160200191610b71565b820191906000526020600020905b815481529060010190602001808311610b5457829003601f168201915b5050505050905093509350935093509193509193565b6000604051806080016040528086815260200185815260200184815260200183815250908060018154018082558091505090600182039060005260206000209060040201600090919290919091506000820151816000019080519060200190610bf192919061105c565b506020820151816001019080519060200190610c0e92919061105c565b506040820151816002019080519060200190610c2b92919061105c565b506060820151816003019080519060200190610c4892919061105c565b505050506040518060800160405280858152602001848152602001838152602001828152506001846040518082805190602001908083835b60208310610ca35780518252602082019150602081019050602083039250610c80565b6001836020036101000a03801982511681845116808217855250505050505090500191505090815260200160405180910390206000820151816000019080519060200190610cf292919061105c565b506020820151816001019080519060200190610d0f92919061105c565b506040820151816002019080519060200190610d2c92919061105c565b506060820151816003019080519060200190610d4992919061105c565b5090505050505050565b60008080549050905090565b60608060608060008581548110610d7257fe5b906000526020600020906004020160000160008681548110610d9057fe5b906000526020600020906004020160010160008781548110610dae57fe5b906000526020600020906004020160020160008881548110610dcc57fe5b9060005260206000209060040201600301838054600181600116156101000203166002900480601f016020809104026020016040519081016040528092919081815260200182805460018160011615610100020316600290048015610e725780601f10610e4757610100808354040283529160200191610e72565b820191906000526020600020905b815481529060010190602001808311610e5557829003601f168201915b50505050509350828054600181600116156101000203166002900480601f016020809104026020016040519081016040528092919081815260200182805460018160011615610100020316600290048015610f0e5780601f10610ee357610100808354040283529160200191610f0e565b820191906000526020600020905b815481529060010190602001808311610ef157829003601f168201915b50505050509250818054600181600116156101000203166002900480601f016020809104026020016040519081016040528092919081815260200182805460018160011615610100020316600290048015610faa5780601f10610f7f57610100808354040283529160200191610faa565b820191906000526020600020905b815481529060010190602001808311610f8d57829003601f168201915b50505050509150808054600181600116156101000203166002900480601f0160208091040260200160405190810160405280929190818152602001828054600181600116156101000203166002900480156110465780601f1061101b57610100808354040283529160200191611046565b820191906000526020600020905b81548152906001019060200180831161102957829003601f168201915b5050505050905093509350935093509193509193565b828054600181600116156101000203166002900490600052602060002090601f016020900481019282601f1061109d57805160ff19168380011785556110cb565b828001600101855582156110cb579182015b828111156110ca5782518255916020019190600101906110af565b5b5090506110d891906110dc565b5090565b6110fe91905b808211156110fa5760008160009055506001016110e2565b5090565b9056fea165627a7a72305820b10fd914b5e3b3fa536985098a3397c3c4c8929b4c52ad48173408ec0f2802640029",
  "source": "pragma solidity ^0.5.0;  \ncontract AlarmUpload {  \n    \n    struct AlarmDetail {\n        string name;\n        string IDCard;\n        string handleScore;\n        string handleDesc;\n    }\n    \n    AlarmDetail[] AlarmList;\n    \n    mapping(string => AlarmDetail) AlarmDetailMapping;\n    \n    function upload(string memory _name, string memory _IDCard, string memory _score, string memory _desc) public {\n        AlarmList.push(AlarmDetail({\n            name: _name,\n            IDCard: _IDCard,\n            handleScore: _score,\n            handleDesc: _desc\n        }));\n        AlarmDetailMapping[_IDCard] = AlarmDetail({\n            name: _name,\n            IDCard: _IDCard,\n            handleScore: _score,\n            handleDesc: _desc\n        });\n    }\n    \n    function getTotal() public view returns (uint) {\n        return AlarmList.length;\n    }\n    \n    function getDetailByIndex(uint _index) public view returns (string memory name, string memory IDCard, string memory handleScore, string memory handleDesc){\n        return (\n           AlarmList[_index].name, \n           AlarmList[_index].IDCard, \n           AlarmList[_index].handleScore,\n           AlarmList[_index].handleDesc\n        );\n    }\n    \n    function getDetailByIDCard(string memory _IDCard) public view returns (string memory name, string memory IDCard, string memory handleScore, string memory handleDesc){\n        return (\n            AlarmDetailMapping[_IDCard].name,\n            AlarmDetailMapping[_IDCard].IDCard,\n            AlarmDetailMapping[_IDCard].handleScore,\n            AlarmDetailMapping[_IDCard].handleDesc\n        );\n    }\n}",
  "sourcePath": "/Users/zhiqiang/Desktop/ethereum-block-chain/contracts/AlarmUpload.sol",
  "compiler": {
    "name": "solc",
    "version": "0.5.8+commit.23d335f2.Emscripten.clang"
  },
  "schemaVersion": "3.0.12",
  "updatedAt": "2019-09-04T08:53:23.775Z",
  "devdoc": {
    "methods": {}
  },
  "userdoc": {
    "methods": {}
  }
}